:020000040800F2
:10000000E80B002005010008D72900085921000845
:10001000D5290008610800084D30000800000000E4
:100020000000000000000000000000004D2E00084D
:100030006308000800000000D92900084F2E0008BE
:100040001F0100081F0100081F010008192B0008EC
:100050001F0100081F010008650800081F010008B3
:100060001F0100081F0100081F0100081F010008F0
:100070001F0100081F0100081F0100081F010008E0
:100080001F0100081F0100081F0100081F010008D0
:100090001F0100081F0100081F0100081F010008C0
:1000A0001F0100081F0100081F0100081F010008B0
:1000B0001F0100081F0100081F0100081F010008A0
:1000C0001F0100081F0100081F0100081F01000890
:1000D0001F0100081F010008413000081F0100082F
:1000E0001F010008DD2900081F010008DFF810D0FB
:1000F00000F02EFB0048004795390008AFF3008060
:10010000E80B00200648804706480047FEE7FEE768
:10011000FEE7FEE7FEE7FEE7FEE7FEE7FEE7FEE7B7
:100120001D2F0008ED00000840EA01039B0703D0E3
:1001300009E008C9121F08C0042AFAD203E011F826
:10014000013B00F8013B521EF9D27047D2B201E0E8
:1001500000F8012B491EFBD270470022F6E710B5CC
:1001600013460A4604461946FFF7F0FF204610BD25
:100170002DE9FE4F804681EA0300C00F0C46009037
:1001800021F0004123F00045B8EB0200A94105D25F
:100190004046214690461C460B46024623F000404E
:1001A000104347D0270DC7F30A00C3F30A5102904A
:1001B000401A019040286BDAC3F3130040F4801B0F
:1001C0000098924620B10023D2EB030A63EB0B0B9D
:1001D00001985946C0F14002504600F065F90646C4
:1001E0000D4650465946019A00F06DF910EB080093
:1001F0006141002487EA115284EAE7731A4340D030
:10020000009A62B3019A012A4FEA075215DC001BDB
:1002100061EB02014FF0004202EA0752CDE90042D1
:10022000001C41F5801132462B4600F0A4F903B0C2
:10023000BDE8F08F40462146F9E7001B61EB020163
:10024000001C41F5801300185B412018A2F500172F
:1002500047EB030140EAD570B6196D4111E06D0816
:100260004FEA360645EAC0754FEA0752001B61EBBC
:100270000201001C41F5801149084FEA30000019C5
:10028000514132462B4603B0BDE8F04F00F064B94F
:100290000098012240000023D0EB020263EBE073E0
:1002A000009821464FEAE074B8EB000061EB0401CE
:1002B000E9E783F000435BE781F0004158E72DE96F
:1002C000FE4F81EA030404F0004421F00041009451
:1002D0004FF0000B23F0004350EA01045ED052EAD5
:1002E00003045BD0C3F30A54C1F30A552C44A4F2AF
:1002F000F3340194A0FB0254C1F3130141F48011C3
:10030000C3F3130343F4801301FB024400FB034EC9
:10031000840A970A44EA815447EA8357A4FB076892
:1003200002958D0A05FB07854FEA932C04FB0C54BC
:100330002705029D4FEA065847EA1637B5EB080530
:100340006EEB070C870E920E47EA811742EA831282
:10035000A7FB0201B6EB0B0164EB00042B0D43EA93
:100360000C335E1844EB1C50DA465146E7FB0201A1
:10037000C5F313044FEA0B3343EA14534FEA043234
:10038000019C43EA0603A4F10C040294009CCDE90D
:1003900000B400F0F0F803B0BDE8F08F0020014693
:1003A000F9E70EB540F2334102910021CDE9001189
:1003B0000A460B4600F0DFF803B000BD00F0004233
:1003C00030F000400AD0C10D01F56071C0F3160095
:1003D00042EA0151C208400711437047002001461C
:1003E000704701F0004330B421F0004150EA0102AF
:1003F00006D00A0DA2F56072C1F31301002A02DCD7
:1004000030BC00207047440F44EAC104C100E0182A
:1004100030BC00EBC25000F068B830B50B46014666
:1004200000202022012409E021FA02F59D4205D393
:1004300003FA02F5491B04FA02F52844151EA2F13D
:100440000102F1DC30BD2DE9F05F05460020924647
:100450009B4688460646814640241BE02846414686
:100460004746224600F086F953465A46C01A914143
:1004700010D311461846224600F016F82D1A67EBE5
:1004800001084F4622460120002100F00DF817EB2D
:1004900000094E41201EA4F10104DFDC484631462C
:1004A0002A464346BDE8F09F202A04DB203A00FAA2
:1004B00002F1002070479140C2F1200320FA03F3BB
:1004C000194390407047202A06DBCB17203A41FAA7
:1004D00002F043EAE07306E041FA02F3D040C2F1D1
:1004E000200291400843194670470029A8BF704771
:1004F000401C490008BF20F00100704710B4B0FA5A
:1005000080FC00FA0CF050EA010404BF10BC7047F4
:1005100049B1CCF1200421FA04F411FA0CF118BF0E
:10052000012121430843A3EB0C01CB1D4FEA0061DD
:100530004FEA102042BF002010BC704700EBC350B0
:1005400010440029A4BF10BC7047401C490008BFDC
:1005500020F0010010BC704710B5141E73F10004A8
:1005600008DA401C41F1000192185B411A4301D1A5
:1005700020F0010010BD2DE9F04D92469B4611B1CF
:10058000B1FA81F202E0B0FA80F220329046FFF731
:100590008BFF04460F4640EA0A0041EA0B0153462E
:1005A0005A46084313D0114653EA010019D0C8F146
:1005B0004002504600F0DEF805460E4650465946C9
:1005C0004246FFF771FF084305D0012004E02046B2
:1005D0003946BDE8F08D0020054346EAE0762C431D
:1005E00037430A986305E40AA0EB08000022FD0ADD
:1005F00044EA47540A3002D500200146E9E70105E4
:1006000010196941DDE9084500196941BDE8F04D5F
:10061000A2E72DE9F04D81EA030404F0004B21F03C
:10062000004514464FF0000A23F0004150EA05024D
:1006300020D054EA01021DD0C5F30A570246C5F383
:100640001303C1F31300C1F30A5640F4801543F4B9
:100650008013A7EB0608101BD64608F2FD3873EB93
:10066000050002D308F1010801E092185B41B8F1DE
:10067000000F03DA00200146BDE8F08D00204FF4A2
:100680008011064684460EE0171B73EB050705D361
:10069000121B63EB050306434CEA010C49084FEAC1
:1006A000300092185B4150EA0107EDD152EA030095
:1006B00012D082EA040083EA0501084305D0101B2A
:1006C000AB4106D20122002306E000224FF0004396
:1006D00002E06FF0010253101AEB06004CEB0851D8
:1006E00010EB0A0041EB0B01BDE8F04DFFF734BF02
:1006F000C1F30A52C1F3130140F2FF3341F48011F8
:100700009A4202DA00200146704740F233439A428F
:10071000A2F2334202DC524200F02CB8FFF7C4BE12
:1007200030B5041E71F1000404DB4FF00044404278
:1007300064EB0101141E73F1000405DB1C464FF04D
:100740000043524263EB0403994208BF904230BD1C
:10075000064C074D06E0E06840F0010394E807000E
:1007600098471034AC42F6D3FFF7C4FCB06B0008D6
:10077000D06B0008202A04DB203A21FA02F0002185
:10078000704721FA02F3D040C2F1200291400843A1
:100790001946704770B50C4C4FF6FF750B486560F5
:1007A0000A49A06000260A480839266048600068A7
:1007B0008047284601F0EAFE0A2000F0DBF80348F3
:1007C0000830A060304670BD5A0500205C00002053
:1007D0007400002070B586B0040008D1104881690B
:1007E00041F010018161806900F0100004900D4E0D
:1007F0000D4D694636F8140000900120019000204C
:1008000002900320039055F8240000F05FF936F8B9
:10081000141055F82400002200F050FA06B070BD04
:10082000001002409E400008480000200449054A8C
:1008300031F8101052F82000012200F03FBA0000F9
:100840009E400008480000200349044A31F8101077
:1008500052F8200000F02ABA9E400008480000200C
:10086000FEE77047012000F025B90000014605A011
:1008700002F0EEFB0020FFF7E7FF642000F07AF8BB
:10088000F8E700004572726F7220696E2025730AC6
:100890000D00000010B590F821100022022905D0AB
:1008A0000421816380F82020012010BD01680B68BD
:1008B00023F00E030B6001680B6823F001030B604B
:1008C00090F84030C46B012101FA03F3636080F8B3
:1008D000211080F82020104610BD000010B590F8BF
:1008E00021100024022903D00421816301243DE06A
:1008F00001680A6822F00E020A6001680A6822F0A4
:1009000001020A601A4A0168914201D1012121E0E5
:10091000174A1432914201D110211BE0144A2832A7
:10092000914201D1891515E0114A3C32914201D121
:1009300089140FE00E4A5032914202D14FF48031B7
:1009400008E00B4A6432914202D14FF4801101E079
:100950004FF08071064A083A5160012180F8211059
:10096000002180F82010416B01B18847204610BD5E
:100970000800024070B5044600F0A6F90546601C68
:1009800002D004480078044400F09EF9401BA042C5
:10099000FAD370BD380000202DE9F04300233E4F0C
:1009A0000F2573E001229A400A406DD023F0030422
:1009B000E619D6F808809C074FEA147C05FA0CF972
:1009C00009EA0804DFF8D480404502D14FF000085E
:1009D00016E0DFF8CC80404502D14FF001080FE06F
:1009E000DFF8C080404502D14FF0020808E0DFF890
:1009F000B880404502D14FF0030801E04FF00408F1
:100A000008FA0CF8A04522D1284CD4F800C02CEAF2
:100A1000020CC4F800C0241DD4F800C02CEA020C5B
:100A2000C4F800C0214C0C34D4F800C02CEA020CED
:100A3000C4F800C0241FD4F800C02CEA020CC4F88B
:100A400000C0D6F808C02CEA090CC6F808C0FF2A76
:100A500001D8064601E000F104064FEA830401D9FB
:100A6000A4F12004D6F800C005FA04F82CEA080C1A
:100A70004FF0040808FA04F84CEA080CC6F800C065
:100A8000C46824EA0204C46003F1010331FA03F2EA
:100A900088D1BDE8F083000000000140000801405B
:100AA000000C01400010014000140140000401400E
:100AB00070470000044910B50A68024202D008607D
:100AC000FFF7F6FF10BD0000140401402DE9F84FB8
:100AD000DFF8B8910024A9F1040B23460F2709F190
:100AE000040AABF1040EC9E00125A5402A40AA4240
:100AF0007DD1674ED1F804C0ACEB0608B44532D0C6
:100B000014DCBCF1030F3AD009DCBCF1000F2AD091
:100B1000BCF1010F1CD0BCF1020F31D11DE0BCF1C2
:100B2000110F17D0BCF1120F2AD119E0B8F5881FA8
:100B300019D006DCB8F5803F15D0B8F5801F1FD15D
:100B400011E0B8F5001F0ED0B8F5041F18D10AE067
:100B5000CB6815E0CB681B1D12E0CB6808330FE0B3
:100B6000CB680C330CE08B682BB1012B4FF00803E2
:100B700003D0456104E0042302E0056100E00023A6
:100B8000FF2A01D8064601E000F104064FEA840579
:100B900001D9A5F12005D6F8008007FA05FC28EA5E
:100BA0000C0803FA05F548EA0508C6F800804D6808
:100BB000ED0062D5374DAE6946F00106AE61AD6914
:100BC00024F0030605F001050095334D06EB050CF6
:100BD000DCF80850A607360F07FA06F825EA0805DC
:100BE000DFF8B880404503D14FF0000817E044E03B
:100BF000DFF8AC80404502D14FF001080FE0DFF88C
:100C0000A480404502D14FF0020808E0DFF8988048
:100C1000404502D14FF0030801E04FF0040808FA04
:100C200006F848EA0508CCF808804D68D9F8006055
:100C3000ED024D4601D5164300E096432E604D6807
:100C4000DAF80060AD02554601D5164300E0964340
:100C50002E604D68DBF80060AD035D4601D516439C
:100C600000E096432E604D68DEF80060ED037546A7
:100C700001D5164300E096432E60641C0D682A4699
:100C8000E5407FF431AFBDE8F88F00000804014073
:100C90000000111000100240000001400008014057
:100CA000000C01400010014000140140C26821EA1C
:100CB00002030A4043EA0241016170470AB101613F
:100CC00070470904FBE70000014880687047000096
:100CD0003800002090F83D007047000070B5040017
:100CE00022D094F83D00002508B984F83C50242017
:100CF00084F83D002068016821F00101016020684E
:100D0000016841F4004101602068016821F400415C
:100D1000016000F06BFB4E4A6168914201D84D4979
:100D200000E04D49884201D2012070BD4B49236843
:100D3000B0FBF1F15E6826F03F060E435E6063682B
:100D4000934206D94FF4967359434FF47A73B1FB2B
:100D5000F3F12368491C1E6A26F03F0631431962ED
:100D60006168914210D84900401EB0FBF1F2521C5C
:100D7000C2F30B02042A01D2042023E0B0FBF1F0FD
:100D8000401CC0F30B001DE0A268EAB301EBC103F5
:100D900003EB0116431EB3FBF6F35B1C43F48043E5
:100DA0001B054AD08AB301EBC10202EB0111401EC0
:100DB000B0FBF1F0401CC0F30B0040F4804000BFDA
:100DC00040F400402168CA694CF6FF739A4310430F
:100DD000C861D4E9071001432068026822F0C0020C
:100DE00011430160D4E9030101432068826848F29D
:100DF000FF339A4311438160D4E905010843216818
:100E0000CA6822F0FF0201E010E018E01043C86059
:100E10002068016841F0010101602564202084F808
:100E20003D00256384F83E50002070BD01EB410673
:100E3000431EB3FBF6F35B1CB2E70120C2E701EBF4
:100E40004101401EB0FBF1F0401CC0F30B00B7E7BE
:100E5000A086010080841E0000093D0040420F0072
:100E60002DE9FF4F83B00025DDE910799A469346BE
:100E70000446DDF848800095FFF726FF064694F803
:100E80003D0020287CD11923012288492046009664
:100E900001F0F8F90028F5D194F83C0001286FD052
:100EA000012084F83C0020680168C90703D101686B
:100EB00041F0010101602068016821F400610160D6
:100EC000222084F83D00402084F83E0025646762BB
:100ED000A4F82A90608D20857548E062CDE90086EF
:100EE00053465A462046049901F04EF900287CD119
:100EF000208DDFF8C091202768B1012814D0022886
:100F0000206801681ED041F4806101602068416959
:100F100080690090BCE020684169816900910168A6
:100F200041F400710160B3E02068016821F4806140
:100F3000016072B62068416981690091016841F4DD
:100F400000710AE041F40061016072B620684169F5
:100F500081690091016821F48061016062B697E0C7
:100F6000032865D801280CD0022843464FF0000220
:100F70004946204600960BD001F084F9A8BB0CE04E
:100F800091E032464146204601F022FA68BB72E009
:100F900001F078F948BB72B633E02068016821F4AB
:100FA0008061016072B620680069616A0870606AD9
:100FB000401C6062208D401E2085608D401E608533
:100FC0003D4846F2A8110068B0FBF1F0C0EBC0004C
:100FD00000EB80000090401E009007D02068406920
:100FE000C04340070DD50098F5E727E044F8305F8F
:100FF0006773A573206940F02000206162B62573F5
:101000001CE02068016841F40071016020680069FB
:10101000616A0870606A401C6062218D491E2185EA
:10102000618D491E618562B621680969017026E0FB
:1010300032464146204601F0CBF918B1012007B0F5
:10104000BDE8F08F20680069616A0870606A401C22
:101050006062208D401E81B22185608D401E6085BA
:1010600020684269D243520712D4032903D1016890
:1010700021F48061016020680069616A0870606A1B
:10108000401C6062208D401E2085608D401E608562
:10109000208D00287FF464AF84F83D7084F83E50C2
:1010A00084F83C50CBE70220C9E7000002001000A2
:1010B0000000FFFF04000100440000200248816896
:1010C000027811448160704738000020074810B54D
:1010D000016841F010010160032000F069F80F2061
:1010E00000F006F800F026F8002010BD00200240B5
:1010F00010B504460C484FF47A710078B1FBF0F05B
:101100000A490968B1FBF0F000F0C7FE50B9102C95
:1011100008D200222146501E00F02AF8044804603C
:10112000002010BD012010BD380000204400002028
:101130003C0000200C4808B5816941F00101816143
:10114000816901F001010091C16941F08051C161E3
:10115000C06900F0805000900448416821F0E061CF
:1011600041F08071416008BD001002400000014064
:10117000F0B40E4B1B680C46C3F30223C3F1070502
:10118000042D00D90425191D072901D2002300E0F0
:10119000DB1E012606FA05F1491E214099409E40BA
:1011A000761E16403143F0BC01F076BF0CED00E036
:1011B000064900F0070208684FF6FF03184040EAAE
:1011C0000220034A10430860704700000CED00E065
:1011D0000000FA052DE9F84305460078354CC007B4
:1011E00054D0E0690026C00008D4E06940F0805087
:1011F000E061E069012600F0805000902E4801680F
:10120000C90512D40168804641F480710160FFF77E
:101210005BFD074605E000BFFFF756FDC01B6428D5
:1012200023D8D8F80000C005F6D5206A10F4407025
:1012300021D0A98801F4407181421CD0206A1F4945
:10124000012220F440700A6000220A602062C00778
:1012500011D0FFF739FD074641F2883808E000BF9A
:10126000FFF732FDC11B414502D90320BDE8F883D9
:10127000206A8007F4D5206A696820F4407008432A
:1012800020621EB1E06920F08050E061287880077C
:1012900005D56068A96820F440400843606028785C
:1012A000C00605D56068E96820F4800008436060E6
:1012B0000020DBE700100240007000404004424282
:1012C0002DE9F0470F46050061D0434E306800F02D
:1012D0000700B84209D2306820F007003843306078
:1012E000306800F00700B84251D128683B4C8107B4
:1012F00012D5400703D5606840F4E060606028784C
:10130000000703D5606840F4605060606068A968B9
:1013100020F0F000084360602878C00728D0686893
:10132000012810D02168022810D0890700292EDA60
:10133000616821F0030101436160FFF7C5FC80464D
:1013400041F288390DE021688903EFE78901EDE773
:10135000FFF7BAFCA0EB0801494502D90320BDE81C
:10136000F0876068696800F00C00B0EB810FEFD186
:10137000306800F00700B8420BD9306820F0070051
:1013800038433060306800F00700B84201D00120D7
:10139000E5E72878400705D56068E96820F4E06053
:1013A000084360602878000706D56068296920F442
:1013B000605040EAC100606000F028F86168084AA7
:1013C000C1F30311515CC840064908600648006833
:1013D000FFF78EFE0020C2E700200240001002400E
:1013E00084400008440000203C00002004480549D7
:1013F00000684968044AC1F30221515CC840704743
:101400004400002000100240944000080E4A516839
:101410000E4801F00C03042B11D0082B0FD10C48FF
:10142000C1F38343C903C05C0AD55168084AC1F3BC
:101430004041921E515C054A5043B0FBF1F07047A9
:1014400004494843704700000010024000127A002F
:101450007440000800093D002DE9F84F040070D0E9
:101460002078C04DC00749D06868C0F381000128CA
:1014700007D06868C0F38100022809D16868C003FA
:1014800006D52868800339D560680028E7D035E0A4
:101490006068B0F5803F0BD010B1B0F5A02F11D02F
:1014A000286820F480302860286820F4802002E03A
:1014B000286840F480302860606890B1FFF704FC31
:1014C00006460AE0286840F480202860F0E700BF64
:1014D000FFF7FAFB801B642873D828688003F7D5D0
:1014E0000CE0FFF7F1FB064605E000BFFFF7ECFB61
:1014F000801B6428F0D828688003F7D420789A4E9F
:1015000080074FF001094FF0000839D5686810F0E6
:101510000C0F07D06868C0F38100022809D1686801
:10152000C00306D42868800714D52069012808D193
:1015300010E02069B0B1C6F80090FFF7C5FB074680
:1015400005E00AE1FFF7C0FBC01B0228C4D82868E9
:101550008007F7D52868616920F0F80040EAC100EB
:1015600028600DE0C6F80080FFF7AEFB074604E0F8
:10157000FFF7AAFBC01B022823D828688007F7D4EE
:10158000207800072CD57948A169D9B1C0F800901E
:10159000FFF79AFB074604E0FFF796FBC01B022803
:1015A0000FD8686A8007F7D571484FF4FA51006880
:1015B000B0FBF1F0009000BF0098411E0091FAD2FC
:1015C0000EE080E0C0F80080FFF77EFB074604E0F5
:1015D000FFF77AFBC01B022875D8686A8007F7D42A
:1015E0002078400760D5E8690027C00008D4E86982
:1015F00040F08050E861E869012700F080500090D9
:101600005C480168C90513D40168834641F48071C0
:101610000160FFF759FB824606E000BFFFF754FB6D
:10162000A0EB0A0064284ED8DBF80000C005F5D511
:10163000E06801280AD008B1052813D0286A20F0F4
:1016400001002862286A20F0040002E0286A40F0C5
:1016500001002862E06841F2883B98B1FFF734FB53
:1016600082460BE0286A40F004002862EEE700BFE3
:10167000FFF72AFBA0EB0A0159455AD8286A8007D0
:10168000F6D50CE0FFF720FB824605E0FFF71CFBD8
:10169000A0EB0A0159454CD8286A8007F6D41FB13F
:1016A000E86920F08050E861E06988B36968C1F3B7
:1016B0008101022944D00228C6F8608004D0FFF7D7
:1016C00003FB044638E034E0FFF7FEFA074604E087
:1016D000FFF7FAFAC01B02282BD828688001F7D43C
:1016E000206AB0F5803F05D16868A16820F4003019
:1016F00008436860D4E908010843696821F474115B
:1017000008436860C6F86090FFF7DEFA044606E01A
:1017100025E000BFFFF7D8FA001B022809D8286887
:101720008001F7D51BE000BFFFF7CEFA001B0228AF
:1017300002D90320BDE8F88F28688001F4D40EE0B8
:101740000128F7D06868226A00F48031914204D100
:10175000616A00F47010884201D00120EAE700209D
:10176000E8E70000001002400000424280044242CC
:10177000440000200070004010B50022164900F01F
:101780006FF842F260216420B1FBF0F14FF4007277
:10179000B2FBF0F089B280B201F0DCF90E480278B9
:1017A0004178C2EB021201EB82018078C1EB01119A
:1017B00000EB81010948814206D907481138427877
:1017C00012B9818101214170BDE810404FF40051F0
:1017D0000348FFF76BBA0000110000208B50010096
:1017E00000100140704710B5044600680168C90741
:1017F00017D04168C90714D040684007204607D574
:10180000FFF7F0FF21686FF004004860042002E059
:10181000FFF7B2FF012060742068416821F00101E8
:10182000416010BD0020FFF701B8000010B504466C
:101830000068016889070AD54068800707D52046F7
:10184000FFF7F0FF2068416821F002014160034981
:101850004FF4003008600120607410BD1404014092
:101860002DE9F04791460C465FEA00084AD084B360
:10187000D8F800004068400744D4404601F059F9C8
:101880004FF461620546B0FBF2F1B0FBF2F302FBEC
:1018900013503C23B0FBF3F0B5FBF2F6607002FB93
:1018A0001650B0FBF3F203FB1200A070182931D3DD
:1018B0001820B1FBF0F7B1FBF0F200FB1210207022
:1018C000404601F02FF9411C04D0A84202D9461B22
:1018D00002E017E04FF0FF36A7EB071000EB4000E7
:1018E000C0EB001005EBC0152946404601F0B3F9E6
:1018F00040B9701C01D0711900E03146404601F03A
:1019000096F910B10120BDE8F0873946404601F054
:1019100076F800E02170B9F1000F0BD0207801F0CB
:1019200063F82070607801F05FF86070A07801F0D3
:101930005BF8A0700020E6E710B5040011D002208B
:1019400084F851002068016821F0400101602046C0
:1019500000F068F80020606584F8510084F85000B9
:1019600010BD012010BD90F85100704740B1426A8F
:1019700000213AB10161416190F8512042B109E082
:10198000012070474268B2F5827FF5D0C161F3E76C
:1019900080F85010022280F851200268136823F06A
:1019A000400313608288038902F4827203F40443C3
:1019B0001A43838903F400631A43037C03F0020390
:1019C0001A43037D03F001031A43038B03F40073EE
:1019D0001A43037F03F038031A4390F8203003F0D2
:1019E00080031A43038D03F400531A4303681A60FB
:1019F0008269042303EA124203685A60826AB2F5DC
:101A0000005F03D1828D036892B21A610268D369C4
:101A100023F40063D3614165012180F85110002057
:101A20007047000000680749884209D10648C1692B
:101A300021F48041C1614FF470410448FEF7ACBF0E
:101A4000704700000038004000100240000C0140C8
:101A50002DE9F84F9946164688460446FFF734F9B3
:101A6000824694F8510001281ED1B8F1000F6FD0C2
:101A7000002E6DD094F85000012815D0012784F86D
:101A80005070032084F8510000256565C4F830804B
:101A9000A686E686A563A587E58765642564A068B4
:101AA000B0F5004F03D00CE00220BDE8F88F2068AD
:101AB000016821F0400101602068016841F4804123
:101AC0000160A06A4FF40058404509D120680168C0
:101AD00021F4005101602068016841F40051016067
:101AE00020680168490603D4016841F040010160A3
:101AF000E068B0F5006F606803D050B3012E29D0C4
:101B000048E008B1012E1FD1206B21680088C86011
:101B100006E020688168890709D5216B0988C160C2
:101B2000206B801C2063E08E401EE0860CE0FFF7F7
:101B3000CBF8A0EB0A01494503D3B9F1FF3F03D02D
:101B40003EE0B9F1000F3BD0E08E0028E1D124E067
:101B500047E0FFE7206B21680078087306E0206803
:101B60008168890709D5216B09780173206B401CB6
:101B70002063E08E401EE0860CE0FFF7A5F8A0EBA6
:101B80000A01494503D3B9F1FF3F03D018E0B9F189
:101B9000000F15D0E08E0028E1D1A06A404504D1A5
:101BA0002068016841F48051016052464946204650
:101BB00001F065F808B120206065A06830B109E047
:101BC00084F8517084F8505003206EE72068C16893
:101BD0008068009084F8517004F8505F60680028B5
:101BE000F3D0012061E72DE9FF4F81B04FF00009EC
:101BF0001D46904604460E9E4FF0010BCDF8009016
:101C0000FFF762F8074694F851006168012806D092
:101C1000B1F5827F4AD1A168E9BB042846D1029878
:101C200000287ED0B8F1000FFBD0002DF9D094F839
:101C3000500001283AD04FF0010A84F850A094F8DF
:101C40005100042802D0052084F85100C4F85490B3
:101C5000C4F83880E587A58702992163E586A586C3
:101C6000C4F84090C4F84490A06A4FF4005840452E
:101C700009D12068016821F40051016020680168E1
:101C800041F40051016020680168490605D40168EB
:101C900041F0400100E009E00160E068B0F5006F4C
:101CA000606807D0F0B3012D5DD0ABE0022005B035
:101CB000BDE8F08F08B1012D4ED1206B216800885E
:101CC000C860206B801C2063E08E401EE086E08EA2
:101CD00048BBA06A40453FD12068016841F480516B
:101CE000016039E020688168890719D5E18EB9B1B2
:101CF000BBF1010F14D1216B0988C160206B801CDE
:101D00002063E08E401EE086E08E4FF0000B38B975
:101D1000A06A404504D12068016841F48051016007
:101D200002E0B8E01FE017E020688168C9070CD026
:101D3000E18F51B1C068A16B0880A06B801CA063CB
:101D4000E08F401EE0874FF0010BFEF7BDFFC01B88
:101D5000B04201D3701C6AD1E08E0028C2D1E08F5E
:101D60000028BFD154E0206B216800780873206BF5
:101D7000401C2063E08E401EE086E08EE8BBA06A37
:101D800040453FD12068016841F48051016039E04D
:101D900020688168890719D5E18EB9B1BBF1010FBF
:101DA00014D1216B09780173206B401C2063E08EF5
:101DB000401EE086E08E4FF0000B38B9A06A404527
:101DC00004D12068016841F4805101602068816875
:101DD000C9070CD0E18F51B1C068A16B0870A06B2E
:101DE000401CA063E08F401EE0874FF0010BFEF720
:101DF0006BFFC01BB04204D300E003E0701C01D0B5
:101E000015E0A6B1E08E0028C2D1E08F0028BFD136
:101E1000A06A404514D1012233461146204600975E
:101E200000F048FF48B1606D40F00200606584F842
:101E300051A084F85090032039E72068C0680090D2
:101E400020688168C943C9060DD4616D41F0020163
:101E50006165016821F4005101602068016841F466
:101E60000051016007E03A463146204600F007FF86
:101E700020B12020606584F850900CE0A06818B96B
:101E80002068C1688068009084F851A084F8509060
:101E9000606D0028D0D0012009E710B5401EB0F1D8
:101EA000807F01D3012010BD4FF0E02460610F213D
:101EB000601701F0F1F80020A061072020610020E8
:101EC00010BD704770470000F8B501680446086807
:101ED000CA684B6910F00F0F4FF0000559D003F09E
:101EE000010602F49077374365D0C10705D0D105CC
:101EF00003D5616C41F001016164410705D5D90743
:101F000003D0616C41F002016164810705D5D907F6
:101F100003D0616C41F004016164010707D502F050
:101F20002001314303D0616C41F008016164616CB0
:101F300000293AD0800604D5900602D5204601F04B
:101F40001DF820684069616CC0F38010090700D457
:101F500060B3204600F0EBFF20684069400621D5C1
:101F60002068143050E8001F21F0400140E80012C2
:101F7000002AF5D1E06BA8B170494163E06BFEF730
:101F8000ADFC002811D0E06B416B01B0BDE8F04022
:101F9000084783060FD593060DD52046BDE8F840C7
:101FA00000F0ECBF2046FFF78DFFF8BD2046FFF79D
:101FB00089FF6564F8BD266B2023012E7DD1C606FE
:101FC0007FD5D6067DD508684868009048694FF0EF
:101FD0000206400643D5E16B086840680004000C27
:101FE000E8D0A28D8242E5D9E085886920282DD0ED
:101FF00020680C3050E8001F21F4807140E8001286
:10200000002AF5D12068143050E8001F21F00101AA
:1020100040E80012002AF5D12068143050E8001F73
:1020200021F0400140E80012002AF5D184F8423046
:10203000256320680C3050E8001F21F0100140E8B3
:102040000012002AF5D1E06BFEF724FC6663A08D38
:10205000E18D401A81B22046FFF733FFF8BDA08D15
:10206000E18D401A81B2E08D28B321B322680C3291
:1020700052E8000F20F4907042E80007002FF5D1DD
:102080002068143050E8002F22F0010240E80027B9
:10209000002FF5D184F84230256320680C3050E8D9
:1020A000002F22F0100240E80023002BF5D16663D8
:1020B0002046FFF706FF204600E002E000F040F86F
:1020C000F8BD05062BD5150629D594F84100212821
:1020D000F6D1A068B0F5805F01D12069B0B1206A67
:1020E000411C2162216800784860E08C401E000499
:1020F000000CE084E4D12068C16821F08001C16057
:102100002068C16841F04001C160F8BD206A0088C4
:10211000C0F308004860206A801C2062E5E74006A2
:10212000F3D55006F1D5CA68204622F04002CA60B5
:1021300084F8413000F00AF8F8BD00001F2F0008B5
:10214000014901200870704700000020014901206A
:102150000870704700000020FEE701684A69D2431A
:1021600052050FD46FF480624A61002140F8301F9D
:10217000202242738173026942F0040202610173FA
:1021800001207047002070472DE9F84F0446006891
:1021900089460B9D01689846174641F480610160AD
:1021A0002068016841F48071016000954FF0011BC7
:1021B0000022594620460A9B00F064F84FF4007A4A
:1021C00040B120680068C00501D5C4F840A00320D4
:1021D000BDE8F88F216809F0FE0008612B46284908
:1021E00020460A9A00F096F8F0BB206841698069A1
:1021F00000902A4620460A9900F022F940B1206C4E
:1022000004283AD12068016841F40071016034E08B
:10221000FEB2B8F1010F09D02168380A08612A46D8
:1022200020460A9900F00CF90028E8D120680661E0
:102230002A4620460A9900F003F90028DFD12068D9
:10224000016841F4807101600095002259462046E2
:102250000A9B00F017F80028B3D1216809F0FF00AD
:1022600040F00100086100E007E02B4604492046E9
:102270000A9A00F04FF80028AAD00120A8E7000031
:10228000020001002DE9F047984617460D46044626
:10229000C1F30746DDF820902AE000BFB8F1FF3F08
:1022A00026D0FEF711FDA0EB0901414502D8B8F197
:1022B000000F1DD12068012E16D0806925EA00008C
:1022C0000004000C12D00020B84211D1002044F8C4
:1022D000300F20216173A073216941F02001216139
:1022E00020730120BDE8F0874069E7E70120EBE7B4
:1022F0002068012E0AD0806925EA00000004000C45
:1023000006D00020B842C9D00020EBE74069F3E7CF
:102310000120F7E72DE9F047984616460D4604469A
:102320004FF000094FF0200AC1F3074723E020686F
:102330004069C043400515D42068016841F400712C
:10234000016021686FF480604861C4F8309084F8BF
:102350003DA084F83E90216C41F00401216484F892
:102360003C9021E0701C06D0FEF7AEFCA0EB08000C
:10237000B04203D816B1012F1FD021E02068012FF1
:1023800015D0806925EA00000004000C18D000BFB9
:1023900044F8309F84F80DA084F80E90216941F034
:1023A0002001216184F80C900120BDE8F08740698C
:1023B00025EA00000004000CEAD12068406901E031
:1023C0002068806925EA00000004000CAFD1ECE72A
:1023D0002DE9F041002590460E460446202728E0CE
:1023E0004069C043C0060CD454F8301B6FF0100095
:1023F000486144F810596777A577206A20622577ED
:1024000014E0FEF761FCA0EB0800B04200D886B9EA
:1024100020684069C04340060BD544F8305F6773BD
:10242000A573206940F02000206125730120BDE8DC
:10243000F08120684169C9434906D1D40020F6E7FC
:1024400070B516460D4604461EE02046FFF785FE91
:1024500008B1012070BD681C16D0FEF735FC801B4A
:10246000A84200D885B920684069C04300060BD552
:10247000002044F8300F20216173A073216941F0DE
:10248000200121612073E4E720684069C043000611
:10249000DBD4002070BD000010B51048FEF71AFC18
:1024A00000281AD10D480E4940F20F3201600D4943
:1024B00041600021C0E902124FF44042C0E904210A
:1024C000FF22C0E906210162FEF708FC002804D0C3
:1024D000BDE8104004A0FEF7C9B910BD08010020F6
:1024E00000540040A086010048414C5F4932435FE0
:1024F000436F6E6669670000174810B5816986B042
:1025000041F008018161816901F00801049181694C
:1025100041F008018161816901F008010491C169FC
:1025200041F40011C161C0690C4C00F4001004902A
:10253000402000901220019001200290032003907F
:1025400069462046FEF7C2FA802000906946204680
:10255000FEF7BCFA06B010BD00100240000C0140AE
:1025600008490968C90706D0064980390968CA07B9
:102570004FF0604101D1704700BF0A68002AFBD0CC
:1025800008707047800E00E0FEF7F4B92DE9F84FAF
:102590000026044635464FF0800AA0279F237F225D
:1025A0003146304600F040F93A46514616A000F058
:1025B0004FFD4FF4806B002259461D48FEF77EFB0D
:1025C0004FEA142904F0FF085FF000048DF8009032
:1025D0008DF801800221684600F0BAF86D1C641C79
:1025E000A4B2ADB2BC42F1D3761CB6B25645EBD321
:1025F000294610A000F02CFD5946BDE8F84F0122F5
:102600000B48FEF75BBB00002D2D4C43445F574940
:10261000445448203D202530346420204C43445FFE
:10262000484549474854203D20253034640A0D0070
:10263000000C01402D2D2D2D2D2D2D2D2D2D2D2D31
:102640007A203D20253034640A0D0000F0B5224880
:1026500085B0816941F008018161816901F008015B
:102660000491816941F008018161816901F00801EB
:102670000491816941F00801816180694FF48065AE
:1026800000F00800012404900320144FCDE9005409
:10269000039069463846FEF719FA694638460094B1
:1026A000FEF714FA0226CDE9006469463846FEF7C3
:1026B0000DFA0020CDE9006069460948FEF706FAE8
:1026C000012229463846FEF7F9FA0122022138464E
:1026D000FEF7F4FA05B0F0BD00100240000C014016
:1026E0000008014010B5094C002202212046FEF7E7
:1026F000E5FA1420FEF73EF9012202212046FEF7FA
:10270000DDFABDE810400A20FEF734B9000C0140A4
:1027100031B50D4D4FF48064002221462846FEF766
:10272000CDFA002201212846FEF7C8FA4FF0FF3308
:10273000012269460548FFF78BF901222146284608
:10274000FEF7BCFA38BD0000000C01409C010020DF
:102750002DE9F05F164F0C4606464FF4806B0022C1
:1027600059463846FEF7AAFA012211463846FEF7C6
:10277000A5FA4FF480384FF6FF794FF0FF3A0DE09D
:10278000444501D3484600E0204685B253462A46D8
:1027900031460848FFF75CF92E44641B002CEFD14A
:1027A00059463846BDE8F05F0122FEF787BA0000BF
:1027B000000C01409C0100202DE9F041184E0C4610
:1027C00005464FF48067002239463046FEF776FA18
:1027D000012211463046FEF771FA012C1BD0114838
:1027E00074B101688A689207FBD56A780A73016838
:1027F0008A689207FCD515F8022B0A73A41EF0D143
:10280000006881680906FCD439463046BDE8F041CD
:102810000122FEF753BA287800F004FBF4E7000029
:10282000000C01409C0100202DE9F843DFF8709076
:1028300015460E4607464FF480681C460022414666
:102840004846FEF73BFA2A20FFF762FF380A8DF868
:1028500000008DF80170280A8DF802008DF80350F1
:1028600004216846FFF774FF2B20FFF751FF300A61
:102870008DF800008DF80160200A8DF802008DF8B7
:10288000034004216846FFF763FF2C20FFF740FF59
:1028900041464846BDE8F8430122FEF70FBA000062
:1028A000000C01400FB42DE9FE4F0C46DDE91198F4
:1028B00005461F4600224FF480612548FEF7FEF9C9
:1028C0003E0C601E304483B2BFB2681E384482B2F0
:1028D00021462846FFF7A8FF00252CE00E98109906
:1028E000203800FB0650002431F8101019484FEA38
:1028F000182B08F0FF0A01604FEA1920019009F037
:10290000FF00009014E013480088A040000406D5A2
:1029100001988DF8080000988DF8090003E08DF803
:1029200008B08DF809A0022102A8FFF711FF641C6E
:10293000A742E8D86D1CAE42D0D803B00122BDE852
:10294000F00F910202485DF814EBFEF7B7B90000F2
:10295000000C0140540000202DE9FE4F144688462B
:1029600005464FF4806B994680274FF0A00A00225D
:1029700059461748FEF7A2F91FFA89F61DE07019AB
:10298000B8420CD34FEA194000EB08011FFA81F856
:10299000002500EB0801514512D2202A0CD0DDE9B8
:1029A0000D01CDE901010C9800904B4641462846A7
:1029B000FFF778FF701985B2641C2278002ADED1F7
:1029C00003B05946BDE8F04F01220148FEF776B941
:1029D000000C0140FEE77047704700000148FEF719
:1029E00025BF0000AC000020002102E00A38C0B280
:1029F000491C0A28FAD2090740EA116070472DE9FC
:102A0000F04104460025C07B627BA37B42E0012AA3
:102A100016D0032A14D0052A12D0072A10D0082A6B
:102A20000ED00A2A0CD00C2A0AD0042A10D0062A6A
:102A30000ED0092A0CD00B2A0AD0022A0DD028E089
:102A40001F2B0CD30C2A05D101221346401C20E079
:102A50001E2B04D30123521C1BE01C2B02D203F1BA
:102A6000010316E011D183B29E0710D16426B3FB97
:102A7000F6F706FB173636B94FF4C876B3FBF6F710
:102A800006FB17331BB91D2303E01D2B01D10322C5
:102A900001236D1C8D42BAD3D1B2E0736173DAB2F7
:102AA000A27300F099F82073BDE8F08170B5044678
:102AB000FEF70AF905464FF47A7606E0FEF704F9C8
:102AC000401BB04201D9032070BD206840688006D9
:102AD000F4D52068416841F010014160002070BDCC
:102AE00070B504460068416821F010014160FEF7AE
:102AF000EBF805464FF47A7607E000BFFEF7E4F8FE
:102B0000401BB04201D9032070BD20684068800698
:102B1000F4D5002070BD00000148FEF764BE00003F
:102B2000AC0000200168086A496A89B241EA0040A5
:102B30007047006881698AB2C1698BB2816989B2C4
:102B40008A4203D0C06961F31F40704743EA0240E4
:102B5000704700002DE9F04180461A480F4686B0C4
:102B600005684668002218491848FEF779FE164C99
:102B700017A1A4F10C00227800F07AFA627814A16F
:102B8000A4F10A0000F074FAA27811A1A4F10800DF
:102B900000F06EFAA4F108039A1E911E03A800F03B
:102BA000E5FE4FF6FF704FF478410096CDE9011035
:102BB0002B4603AA39464046FFF7CEFE06B0BDE8D5
:102BC000F08100006C00002011000020AC0000200B
:102BD0002530326400000000F0B56424C1EBC1036D
:102BE0000927A500072603EB01130329B3FBF7F11F
:102BF00000F5FA60114401440AD2401EB0FBF4F221
:102C000001EB9001B0FBF5F0891A0844001D08E0C3
:102C1000B0FBF4F201EB9001B0FBF5F0891A084427
:102C2000801CB0FBF6F106FB1100C0B2F0BD70B520
:102C30000D4606460024FFF739FF48B93168280CD5
:102C400008623168A8B248623046FFF749FF00B118
:102C50000124204670BD70B50D4606460024FFF7DE
:102C600025FF48B93168280C88613168A8B2C8616D
:102C70003046FFF735FF00B10124204670BDF8B59E
:102C800015460E460B46009204460122022100F032
:102C900011F840B93346002280212046009500F00B
:102CA00009F8002804D0606D40F020006065032022
:102CB000F8BD00002DE9F8431E46914688460446BB
:102CC000089DFEF701F8401B351AFDF7FDFF07468A
:102CD00025480068C0F3CB30684338E0701C37D01B
:102CE000FDF7F2FFC01BA84203D215B1009860B3F4
:102CF0002CE02068416821F0E00141606068B0F597
:102D0000827F0BD1A068B0F5004F02D0B0F5806F84
:102D100004D12068016821F040010160A06AB0F58B
:102D2000005F09D12068016821F40051016020682A
:102D3000016841F400510160012084F85100002035
:102D400084F850000320BDE8F8830025401E009061
:102D50002068816838EA010004D000214945BDD1CE
:102D60000020F0E70121F9E74400002010B50348F6
:102D7000FEF7E2FDBDE8104000F002B89C01002023
:102D800010B51048FEF7EFFD002819D10D480E4987
:102D9000012201600021C161426181600222026161
:102DA0000722C0E90A12C1604FF400720162826119
:102DB00041624FF482714160BDE81040FEF7D6BD1C
:102DC00010BD00009C0100200030014030B585B0EE
:102DD000124C00200290A06940F00400A061A0699C
:102DE0000F4D00F00400049020200090022001907C
:102DF0000320039069462846FDF768FE8020009076
:102E000069462846FDF762FEA06940F48050A06143
:102E1000A06900F48050049005B030BD001002405D
:102E20000008014001B5074882B001238068009086
:102E300001AA02A90448FEF7D6FE002801D0FFF738
:102E400095FF0EBD480000209C0100207047FEF752
:102E500035B9000070B594B028216846FDF77DF9BA
:102E600014210AA8FDF779F9002501240F95119581
:102E7000052012950090CDE9025410954FF4803052
:102E8000019002260494CDE907604FF4E010099008
:102E90006846FEF7E1FA08B10FA018E00F20CDE96F
:102EA0000A064FF48060CDE90C5002210AA80E9565
:102EB000FEF706FA08B10DA009E04FF48070CDE9E5
:102EC0000F400FA8FEF786F9002802D00CA0FDF7EE
:102ED000CDFC14B070BD000048414C5F5243435FCD
:102EE0004F7363436F6E66696700000048414C5F33
:102EF0005243435F436C6F636B436F6E6669670059
:102F000048414C5F52434345785F50657269706831
:102F1000434C4B436F6E666967000000704710B505
:102F2000406A0021C185C184FEF7CCFF10BD016855
:102F30000C3151E8002F22F4907241E80023002B5D
:102F4000F5D10168143151E8002F22F0010241E867
:102F50000023002BF5D1016B012909D101680C3147
:102F600051E8002F22F0100241E80023002BF5D198
:102F7000202180F8421000210163704708B590F8C5
:102F80004210222901D0022008BD82684FF48053EC
:102F90009A4201D1016921B1816A9A421BD04AB19A
:102FA0000AE00268816A5268C2F308020A80816AF4
:102FB000891C08E0026972B10268526802F07F025F
:102FC0000A70816A491C8162C18D491E0904090C7D
:102FD000C18503D01BE002685268F1E70168CA6846
:102FE00022F02002CA600168CA6822F48072CA60B6
:102FF00001684A6922F001024A61202180F84210EA
:1030000000214163026B012A03D0FFF799F80020E9
:1030100008BD016301680C3151E8002F22F0100255
:1030200041E80023002BF5D101680A68D20602D5D9
:103030000A6849680091818DFEF743FFE7E70000C9
:103040000148FEF741BF0000C0000020FEE700007D
:103050000FB4054B10B503A9044A029800F0FEF81E
:1030600010BC5DF814FB000091390008340000200A
:103070000FB4084B10B504A902AA039800F0EEF8AB
:10308000044602A9002000F06CFC204610BC5DF84C
:1030900014FB0000633900080907090E002804DB4F
:1030A00000F1E02080F80014704700F00F0000F1FC
:1030B000E02080F8141D704702E008C8121F08C104
:1030C000002AFAD170477047002001E001C1121FA9
:1030D000002AFBD1704700002DE9FF5F82B000217C
:1030E000DDE90430020DDDF840B0034318D044F6AA
:1030F0001050A2F2FF3242431514119801281FD03C
:10310000A5EB0B00401C5FEA000A4FF000064E4F93
:10311000DFF83891B046504615D5CAF1000413E0E7
:10312000119801244AA3012801D16FEA0B010298EA
:10313000119AC0E90031C0E9024206B0BDE8F09F33
:10314000CBF10000DFE704460021404A491842EB7A
:103150000450CDE9001012E0E00707D032463B46AC
:1031600040464946FDF7ABF88046894632463B4625
:1031700010461946FDF7A3F806460F466410002CCA
:10318000EAD1DDE90401DDE90023BAF1000F06DA36
:10319000FDF795F842464B46FDF791F805E0FDF73F
:1031A00038FA42464B46FDF734FA04460E460022F2
:1031B000284BFDF7B5FA03D84FF0FF30014607E082
:1031C0000022254B20463146FCF7D2FFFDF790FA4E
:1031D000102409E0002C0ADB0A220023FDF733F952
:1031E000039B30321A55641E50EA0102F2D1641C6E
:1031F000039AC4F111031444119A012A03D0012245
:1032000008430DD10AE0084304D000204FF0110B11
:10321000119072E7A3EB0B056D1E0DE05B4504DD1D
:103220004FF0000205F1010504E003DA4FF000025F
:10323000A5F10105002AECD002981199C0E90231EC
:10324000C0E9004579E70000000014400000F03FAD
:10325000300000000000F0430000E03F2DE9FF4F88
:1032600095B09A46884606460025EEE1252877D196
:1032700000242746F94A0121039400E0044316F88C
:10328000013F203B01FA03F01042F7D130782A28A1
:1032900011D06FF02F033078A0F13002092A16D830
:1032A000039A44F0020402EB820203EB4202104450
:1032B000761C0390EFE758F8042B0392002A03DAF8
:1032C000504244F40054039044F00204761C3078D9
:1032D0002E2816D116F8010F44F004042A280DD028
:1032E0006FF02F023078A0F13003092B09D807EBDB
:1032F000870302EB4303C718761CF3E758F8047BF7
:10330000761C30786C280FD006DC4C2817D0682843
:103310000DD06A2814D104E0742810D07A280FD177
:103320000DE044F400140AE044F4801401E044F495
:1033300040147278824202D104F58014761C761C07
:10334000307866280BD013DC582877D009DC0028A9
:1033500075D04528F6D04628F4D047281AD193E1F5
:1033600018E0632835D0642879D0652812D18BE124
:10337000702873D008DC6728F1D069286FD06E28D8
:103380000DD06F2806D1ACE073282CD0752874D0EE
:10339000782853D05246179990476D1C54E1C4F3D6
:1033A0000250022809D003280DD0D8F800100428B4
:1033B0000DD00D6008F1040846E1D8F80010EA17B6
:1033C000C1E90052F6E7D8F800100D80F2E70D7061
:1033D000F0E718F8041B8DF8001000208DF80100AC
:1033E000EB46012003E058F804BB4FF0FF306107C3
:1033F0004FF0000102D40DE009F101018946B94204
:103400000FDA8145F8DB1BF809100029F4D108E038
:1034100009F1010189468142FADB1BF809100029F4
:10342000F6D103985346A0EB090721463846179A70
:1034300000F080FA284400EB090507E044E008E1C9
:103440000DE01BF8010B524617999047B9F101099D
:10345000F7D2534621463846179AF2E039E00A215E
:10346000C4F302524FF0000B0091022A06D058F824
:10347000040BC117032A09D00AE023E008F1070072
:1034800020F00702F2E80201904605E000B2C11701
:10349000042A01D140B2C117002906DA0A460021E8
:1034A000404261EB02012D2202E0220504D52B22CD
:1034B0008DF80420012203E0E20701D02022F7E783
:1034C000914657E00A2100E010214FF0000B0091D7
:1034D0000BE010214FF0000B44F00404082700918A
:1034E00003E008204FF0000B0090C4F30252022AC0
:1034F00005D058F8040B0021032A08D008E008F191
:10350000070020F00702F2E80201904603E080B2D3
:10351000042A00D1C0B24FF0000922072AD5327820
:10352000702A07D0DDF800C08CF0100C5CEA0B0CA0
:1035300005D00EE040228DF80420012208E050EA78
:10354000010306D030238DF804308DF805200222C7
:103550009146009B83F0080353EA0B030AD150EA1B
:10356000010201D1620705D530228DF804204FF009
:1035700001097F1E3278582A04D039A20C920CAA75
:1035800002920BE03BA2F9E75B46009AFCF75BFF77
:103590000C9B9B5C029A521E0292137050EA01022D
:1035A000F2D1029804A9081A00F1200B600702D595
:1035B00024F4803400E001275F4502DDA7EB0B0017
:1035C00000E0002000EB0B01009003984944401AF2
:1035D0000390E00306D453462146179A039800F05F
:1035E000A9F90544002706E001A85246C05D1799D5
:1035F00090476D1C7F1C4F45F6DBE0030CD553460E
:103600002146179A039800F095F9054404E030200C
:103610005246179990476D1C0099481E009000294A
:10362000F5DC08E00298029952460078491C0291A4
:10363000179990476D1CBBF10001ABF1010BF1DC58
:103640005BE100F065F90544761C307800287FF4D2
:103650000DAE19B02846BDE8F08F00000928010022
:1036600030313233343536373839616263646566F8
:1036700000000000303132333435363738394142BA
:103680004344454600000000600700D4062708F1C7
:10369000070020F00700F0E80223804603F0004C0A
:1036A0005FEA0C0001D097A009E0200501D596A0A3
:1036B00005E0E00701D095A001E0AFF24C001390C7
:1036C000307823F0004365280CD006DC452809D06B
:1036D00046281DD047287FD13BE0662818D06728B0
:1036E0007AD136E00021112F01DB112000E0781C97
:1036F000CDE9000104A90CA8FFF7EEFCDDE90D01FE
:103700000C9A4FF0000B07F10109109200914EE066
:103710004FF000400097CDE9011004A90CA8FFF775
:10372000DBFCDDE90D020C9B0F994FF0000B91467D
:103730001093009211B9791C00EB0109B7EB090055
:1037400003D4C0F1FF3B07F10109A9EB0700019089
:1037500042E0012F00DA01270021112F01DD1120A5
:1037600000E03846CDE9000104A90CA8FFF7B4FC3D
:10377000DDE90D010C9A00914FF0000BB946109253
:1037800021070FD4009A4A4503DA914601E0A9F1D6
:103790000109B9F1010F05DD109AA9F10101515C90
:1037A0003029F4D0B84202DA10F1040F03DA012113
:1037B000CDE9011010E0002803DC8344A9EB0001EF
:1037C00002E0411C494500DD8946A0EB0B00401C8E
:1037D00001904FF000400290200705D40198484521
:1037E00002DB4FF0FF30019000208DF84B00029873
:1037F0000DF14B07B0F1004F25D002200C902B208B
:103800000D90029800280CDA404202902D200D9075
:1038100007E00A210298FCF700FE3031029007F819
:10382000011D0C99481E0C900029F2DC029800281A
:10383000EFD1791E0D980870307800F0200040F02C
:10384000450007F8020D11A8C01BC01D0290139877
:10385000007800B1012000EB0901019801EBE07153
:10386000029801440398401A401E0390E00306D4D6
:1038700053462146179A039800F05CF805441398C4
:10388000007818B15246179990476D1CE00323D574
:1038900053462146179A039800F04CF805441BE064
:1038A000BBF1000F07DB0098584504DD109817990D
:1038B00010F80B0001E0179930205246904701980C
:1038C0000BF1010B401E05F10105019004D12E20E2
:1038D0005246179990476D1CB9F10001A9F10109F1
:1038E000DEDC05E017F8010B5246179990476D1C76
:1038F0000299481E02900029F4DC53462146179A8B
:1039000003989EE62D0000002B0000002000000020
:103910002DE9F041044600251E461746880404D4CC
:1039200005E039462020B0476D1C641EF9D52846B5
:10393000BDE8F0812DE9F041044600251E46904681
:10394000C80301D5302700E02027880404D505E00E
:1039500041463846B0476D1C641EF9D52846BDE87F
:10396000F0810A68531C0B601070704710B507A4F3
:1039700009882478018084701188A0F803104471AC
:103980001988C1800021017210BD00003A000000BA
:10399000FEF7E6BD96B0FDF799FBFFF75BFA002056
:1039A000FCF718FFFEF752FEFFF710FAFFF7E8F9F1
:1039B000FEF7A2FDFEF770FDFCF7ECFE8A494FF61C
:1039C000FF788026086810904F68A0254046FEF7D3
:1039D000DDFD4FF448706424B0FBF4F081B24FF485
:1039E000007ABAFBF4F04FF47849CDE9007980B25F
:1039F000CDF808807DA2109BFEF7AEFFA001B0FBC2
:103A0000F4F081B2BAFBF4F0CDE9007980B2CDF8E0
:103A100008807CA2109BFEF79FFFC5EB05104000BD
:103A20001290462045434FEA860911954FF4FA70EB
:103A3000FCF7A0FF0221784DCDE900514FF47A78D0
:103A400001232E22CDF8088000217448FDF708FAE2
:103A500000262E706E704FF0030ACDE9005A012344
:103A6000062231466D48CDF80880FDF7F9F92E7031
:103A70006E70AE70CDE9005A01230622002167481E
:103A8000CDF80880FDF7ECF928786978A5F11404E1
:103A900000EB012060622E706E70AE70CDE9005AAE
:103AA0000123072200215D48CDF80880FDF7D8F9F1
:103AB0002878697800EB0120A062FCF772FCDFF83F
:103AC0006081DFF860A142465346FCF7F8FBFCF743
:103AD00088FC2063206B544D206BFCF76FFC4FF08B
:103AE0006632524BFCF7E5FBFCF77BFC2063606A17
:103AF000FCF757FC42465346FCF7E1FBFCF771FC30
:103B0000E062E06AE06AFCF759FC4FF06632474B2E
:103B1000FCF7CFFBFCF765FCE0624548A246D0E924
:103B20000010CDE91310E06AFCF748FC02460B4692
:103B300040A103A8FFF79CFA3848322203A962305B
:103B4000FCF7F2FADFF8D4B013990BF1240B5846C6
:103B5000642440F8451FBDF850500BF13E018580AC
:103B6000CE721298B046B0FBF4F081B2B9FBF4F01B
:103B70004FF6FF764FF478420097CDE9012680B2E8
:103B80000BF13E02109BFEF7E7FEDAF83000FCF77F
:103B900015FC02460B4627A103A8FFF769FA32225B
:103BA00003A90BF13E00FCF7BFFA5846139940F801
:103BB000451F1F2285800BF13E0080F80B80119875
:103BC0000097B0FBF4F081B2B9FBF4F0CDE9012627
:103BD00080B20BF13E02109BFEF7BEFE4FF4FA706E
:103BE000FCF7C8FE22E700006C00002054656D70F1
:103BF0006572617475726520416D6269656E743AB3
:103C00000000000054656D70657261747572652006
:103C10004F626A6563743A001400002008010020B6
:103C20007B14AE47E17A943F339388436612714028
:103C30006C4000082567000008B500208DF80000E2
:103C40001320FEF765FD0A20FEF79EFC2820FEF7F4
:103C50005FFD0A20FEF798FC3620FEF759FDC020D4
:103C60008DF8000001216846FEF7A6FD08BD08B5E5
:103C700000208DF800001320FEF74AFD0A20FEF711
:103C800083FC2920FEF744FD0A20FEF77DFC362048
:103C9000FEF73EFDC0208DF8000001216846FEF7CA
:103CA0008BFD08BD2DE9F041064650880D469188F0
:103CB00040EA01415089938940EA0340091A4C08BF
:103CC00017184021362000F0C9F92946304600F087
:103CD0003BF961003846FEF76FFDBDE8F041C021B9
:103CE000362000F0BBB9000070B51D460646002422
:103CF00048190B46802811D81146184600F024F9BF
:103D0000074803E020F81460641CE4B2AC42F9D325
:103D10006900BDE870400248FEF74EBD70BD00006E
:103D2000660500202DE9F0411D468046002450190B
:103D300016460F4680280AD807E0301981B242465D
:103D4000384600F072F9641CE4B2AC42F5D3BDE829
:103D5000F0818020704780207047000000B585B05A
:103D600000208DF800000A20FCF704FEFEF7BAFCE4
:103D70000120FEF7CDFC9620FCF7FCFD1120FEF79C
:103D8000C7FCFF20FCF7F6FDB120FEF7C1FC5DA0EB
:103D900003210068019001A8FEF7DAFCB220FEF7CB
:103DA000B7FC58A003210068019001A8FEF7D0FCE1
:103DB000B320FEF7ADFC54A1D1E90001CDE901012A
:103DC000062101A8FEF7C4FCB420FEF7A1FC0720E1
:103DD0008DF8000001216846FEF7BAFCC020FEF70E
:103DE00097FC4BA003210068019001A8FEF7B0FCEE
:103DF000C120FEF78DFCC5208DF80000012168462A
:103E0000FEF7A6FCC220FEF783FC42A00221006858
:103E1000019001A8FEF79CFCC320FEF779FC3EA0B0
:103E200002210068019001A8FEF792FCC420FEF771
:103E30006FFC3AA002210068019001A8FEF788FCFF
:103E4000C520FEF765FC0E208DF8000001216846B4
:103E5000FEF77EFC2020FEF75BFC3620FEF758FCC8
:103E6000C8208DF8000001216846FEF771FC3A2059
:103E7000FEF74EFC05208DF8000001216846FEF794
:103E800067FC2A20FEF744FC25A00421006801906D
:103E900001A8FEF75DFC2B20FEF73AFC20A00421D0
:103EA0000068019001A8FEF753FCE020FEF730FC0B
:103EB0001CA00DF1040C0FC88CE80F00102101A804
:103EC000FEF746FCE120FEF723FC1AA00DF1040CDE
:103ED0000FC88CE80F00102101A8FEF739FC132051
:103EE000FEF716FC0A20FCF745FD2920FEF710FC22
:103EF0006420FCF73FFD012291021248FCF7DEFE30
:103F000005B000BD012C2D00012C2D012C2D000031
:103F1000A20284000A0000008A2A00008AEE000043
:103F20000000007F021C07123732292D29252B396A
:103F300000010310031D07062E2C292D2E2E373FBE
:103F400000000210000C014038B5054600208DF835
:103F500000000C462A20FEF7DBFB280A8DF8000043
:103F600001216846FEF728FC8DF8005001216846C3
:103F7000FEF722FC2B20FEF7CBFB200A8DF8000079
:103F800001216846FEF718FC8DF8004001216846C3
:103F9000FEF712FC2C20FEF7BBFB38BDF8B505463A
:103FA00000208DF800001E4617460C462A20FEF71A
:103FB000AFFB280A8DF8000001216846FEF7FCFBE4
:103FC0008DF8005001216846FEF7F6FB3D446D1E5A
:103FD000280A8DF8000001216846FEF7EDFB8DF8F8
:103FE000005001216846FEF7E7FB2B20FEF790FB0F
:103FF000200A8DF8000001216846FEF7DDFB8DF8F0
:10400000004001216846FEF7D7FB3444641E200AB5
:104010008DF8000001216846FEF7CEFB8DF80040C8
:1040200001216846FEF7C8FBF8BD38B514460022EA
:104030008DF80020802810D280290ED2FFF784FF4F
:10404000200A8DF8000001216846FEF7B5FB8DF8C7
:10405000004001216846FEF7AFFB38BD13B5FEF7FF
:1040600057FB012101A8FEF7A7FB1CBD2067724387
:104070000000010202030405060708090A0B0C0DE3
:104080000E0F1010000000000000000001020304E9
:1040900006070809000000000102030406000020D2
:1040A000010000000000000000000000000000000F
:1040B0000000000000000000000000000000000000
:1040C00000000000000000000000000000000000F0
:1040D00000000000000000000000000000000000E0
:1040E00000000000000000000000000000000000D0
:1040F000038000038000038000038000038000032E
:1041000080000380000380000380000100000100A4
:104110000000000000000003800003800000000099
:10412000000000000000000000000000000000008F
:1041300000000000000000000000000E70000E7083
:10414000000E700004200004200004200004200061
:10415000000000000000000000000000000000005F
:10416000000000000000000000000000000000004F
:10417000000000000000000000000000000000003F
:104180000660000660000660000660000660003FF2
:10419000F8003FF8000660000CC0003FF8003FF850
:1041A000000CC0000CC0000CC0000CC0000CC00013
:1041B00000000000000000000000000000000000FF
:1041C000000000000001800001800007B0000FF037
:1041D000001870001870001C00000F800007E0003D
:1041E00000F0001830001C30001C70001FE0001BA5
:1041F000C0000180000180000180000180000000FB
:1042000000000000000000000000000000000000AE
:104210000780000FC0001CE0001860001860001C40
:10422000E0000FF80007E0001FF000073800061854
:104230000006180007380003F00001E0000000004D
:10424000000000000000000000000000000000006E
:10425000000000000000000000000000000003F06B
:104260000007F0000C60000C00000C0000060000CD
:104270000700000F9C001DFC0018F0001870000FD4
:10428000FC0007DC0000000000000000000000004F
:10429000000000000000000000000000000000001E
:1042A0000000000380000380000380000100000183
:1042B00000000100000100000000000000000000FC
:1042C00000000000000000000000000000000000EE
:1042D00000000000000000000000000000000000DE
:1042E000000000000000000000180000380000700E
:1042F0000000F00000E00000E00001C00001C0008C
:1043000001C00001C00001C00001C00000E00000C9
:10431000E00000700000700000380000180000008D
:10432000000000000000000000000000000000008D
:104330001800001C00000E00000E0000070000071F
:1043400000000380000380000380000380000380DE
:10435000000380000700000700000F00000E0000AF
:104360001C00001800000000000000000000000019
:1043700000000000000000000180000180000180BA
:10438000001DB8001FF80007E00003C00003C000D4
:104390000660000660000000000000000000000051
:1043A000000000000000000000000000000000000D
:1043B00000000000000000000000000000000000FD
:1043C0000000000000000180000180000180000169
:1043D00080000180003FFC003FFC00018000018064
:1043E000000180000180000180000000000000004A
:1043F00000000000000000000000000000000000BD
:1044000000000000000000000000000000000000AC
:10441000000000000000000000000000000000009C
:1044200000000000000000000000000000E00000AC
:10443000C00001C0000180000180000300000300F3
:10444000000000000000000000000000000000006C
:10445000000000000000000000000000000000005C
:1044600000000000001FF8001FF80000000000001E
:10447000000000000000000000000000000000003C
:10448000000000000000000000000000000000002C
:10449000000000000000000000000000000000001C
:1044A000000000000000000000000000000000000C
:1044B00000000000000000000000000003C0000336
:1044C000C00003C000000000000000000000000069
:1044D00000000000000000000000001800001800AC
:1044E0000038000030000070000060000060000034
:1044F000C00000C000018000018000030000030034
:10450000000600000600000E00000C00001C000069
:10451000180000180000000000000000000000006B
:10452000000000000000000003C00007E0000C30A5
:10453000000C30001818001818001818001818007F
:104540001818001818001818000C30000C3000075C
:10455000E00003C0000000000000000000000000B8
:10456000000000000000000000000000000000004B
:104570000080000780001F80001D80000180000176
:104580008000018000018000018000018000018026
:10459000000180000180001FF8001FF800000000EB
:1045A000000000000000000000000000000000000B
:1045B000000000000000000007C0001FF0003830BD
:1045C00000301800301800001800003000006000B3
:1045D00001C0000380000600000C00001800003F2E
:1045E000F8003FF80000000000000000000000009C
:1045F00000000000000000000000000000000000BB
:1046000003C0000FE0000C7000003000003000001C
:10461000600003C00003E0000070000018000018F4
:10462000000018001838001FF0000FC00000000044
:10463000000000000000000000000000000000007A
:10464000000000000000000000E00001E00001E0C8
:10465000000360000660000660000C60000C600053
:104660001860003060003FF8003FF8000060000371
:10467000F80003F800000000000000000000000047
:10468000000000000000000000000000000000002A
:104690001FF0001FF0001800001800001800001B99
:1046A000C0001FF0001C30000018000018000018A7
:1046B000000018003030003FF0000FC00000000084
:1046C00000000000000000000000000000000000EA
:1046D000000000000000000000F80003F8000700E0
:1046E000000E00000C00001800001BC0001FF000AE
:1046F0001C30001818001818001818000C38000F8B
:10470000F00003E0000000000000000000000000D6
:104710000000000000000000000000000000000099
:104720001FF8001FF80018180018380000300000AB
:10473000300000700000600000600000E00000C079
:104740000000C00001C000018000018000000000E6
:104750000000000000000000000000000000000059
:10476000000000000000000007E0000FF0001C380F
:10477000001818001818000C300007E00007E000CF
:104780000C30001818001818001818001C38000FFA
:10479000F00007E000000000000000000000000042
:1047A0000000000000000000000000000000000009
:1047B00007C0000FF0001C3000181800181800186F
:1047C00018000C38000FF80003D800001800003063
:1047D0000000700000E0001FC0001F00000000008B
:1047E00000000000000000000000000000000000C9
:1047F00000000000000000000000000000000000B9
:104800000000000003C00003C00003C0000000005F
:1048100000000000000000000000000003C00003D2
:10482000C00003C000000000000000000000000005
:104830000000000000000000000000000000000078
:1048400000000000000000000000000000F0000078
:10485000F00000F000000000000000000000000078
:104860000000E00001C000018000018000030000A2
:104870000200000000000000000000000000000036
:104880000000000000000000000000000000001C0C
:1048900000003C0000F00003C0000F00003C0000DE
:1048A000F000003C00000F000003C00000F000001A
:1048B0003C00001C000000000000000000000000A0
:1048C00000000000000000000000000000000000E8
:1048D0000000000000000000000000000000007F59
:1048E000FC007FFC000000000000007FFC007FFC5B
:1048F00000000000000000000000000000000000B8
:1049000000000000000000000000000000000000A7
:104910000000000000000000000000000000700027
:10492000007800001E000007800001E00000780011
:10493000001E0000780001E0000780001E000078E3
:1049400000007000000000000000000000000000F7
:104950000000000000000000000000000000000057
:1049600000000007C0000FE00018700018300018A9
:10497000300000700000E00003C00003800003006E
:104980000000000000000007000007000000000019
:104990000000000000000000000000000000000017
:1049A000000000000000000003E00007F0000E38E7
:1049B000000C180018780018F80019D80019980091
:1049C00019980019980018F8001878001800000CC1
:1049D00000000E180007F80003E0000000000000CF
:1049E00000000000000000000000000000000000C7
:1049F0000000001F80001FC00001C0000360000312
:104A000060000630000630000C30000FF8001FF880
:104A100000180C00300C00FC7F00FC7F0000000040
:104A20000000000000000000000000000000000086
:104A300000000000000000000000007FE0007FF0A8
:104A4000001838001818001818001838001FF00057
:104A50001FF800181C00180C00180C00180C007F20
:104A6000F8007FF0000000000000000000000000DF
:104A70000000000000000000000000000000000036
:104A800000000003EC000FFC001C1C00180C0030A0
:104A90000C0030000030000030000030000030001A
:104AA00000180C001C1C000FF80003F000000000B0
:104AB00000000000000000000000000000000000F6
:104AC00000000000000000000000007FC0007FF038
:104AD00000183800181800180C00180C00180C00EA
:104AE000180C00180C00180C001818001838007F5B
:104AF000F0007FE000000000000000000000000067
:104B000000000000000000000000000000000000A5
:104B10000000007FF8007FF800181800181800192E
:104B200098001980001F80001F80001980001998CC
:104B3000001818001818007FF8007FF80000000027
:104B40000000000000000000000000000000000065
:104B500000000000000000000000003FFC003FFCDF
:104B6000000C0C000C0C000CCC000CC0000FC000A2
:104B70000FC0000CC0000CC0000C00000C00003F77
:104B8000C0003FC000000000000000000000000066
:104B90000000000000000000000000000000000015
:104BA00000000003EC000FFC001C1C00180C00307F
:104BB0000C0030000030000030FE0030FE00300CF1
:104BC00000380C001C1C000FFC0003F0000000006B
:104BD00000000000000000000000000000000000D5
:104BE00000000000000000000000007E7E007E7ECD
:104BF000001818001818001818001818001FF800DE
:104C00001FF8001818001818001818001818007E4F
:104C10007E007E7E0000000000000000000000001A
:104C20000000000000000000000000000000000084
:104C30000000001FF8001FF8000180000180000143
:104C4000800001800001800001800001800001805F
:104C5000000180000180001FF8001FF80000000024
:104C60000000000000000000000000000000000044
:104C7000000000000000000000000007FE0007FE2A
:104C80000000300000300000300000300000300034
:104C90003030003030003030003030003060003FC5
:104CA000E0000F8000000000000000000000000095
:104CB00000000000000000000000000000000000F4
:104CC0000000007F3E007F3E001830001860001892
:104CD000C0001980001B80001FC0001CE00018707D
:104CE000001830001838007F1F007F1F00000000F0
:104CF00000000000000000000000000000000000B4
:104D000000000000000000000000007F80007F80A5
:104D1000000C00000C00000C00000C00000C000057
:104D20000C00000C0C000C0C000C0C000C0C007F98
:104D3000FC007FFC000000000000000000000000FC
:104D40000000000000000000000000000000000063
:104D5000000000F00F00F81F00381C003C3C003C35
:104D60003C00366C00366C0033CC0033CC00318C08
:104D700000300C00300C00FE7F00FE7F00000000C1
:104D80000000000000000000000000000000000023
:104D9000000000000000000000000078FE0078FE27
:104DA000001C18001E18001F18001B18001B98007C
:104DB00019D80018D80018F8001878001838007FA3
:104DC00018007F1800000000000000000000000034
:104DD00000000000000000000000000000000000D3
:104DE00000000003C0000FF0001C38001818003845
:104DF0001C00300C00300C00300C00300C00381C53
:104E0000001818001C38000FF00003C0000000005C
:104E10000000000000000000000000000000000092
:104E200000000000000000000000003FF0003FF81C
:104E3000000C1C000C0C000C0C000C0C000C1800DE
:104E40000FF8000FE0000C00000C00000C00003F09
:104E5000C0003FC000000000000000000000000093
:104E60000000000000000000000000000000000042
:104E700000000003C0000FF0001C380018180038B4
:104E80001C00300C00300C00300C00300C00381CC2
:104E9000001818001C38000FF00007C00007CC00F5
:104EA0000FFC000C380000000000000000000000B3
:104EB00000000000000000000000007FE0007FF024
:104EC000001838001818001818001838001FF000D3
:104ED0001FC00018E0001870001830001838007F5C
:104EE0001E007F0E00000000000000000000000017
:104EF00000000000000000000000000000000000B2
:104F000000000007D8000FF8001C3800181800181F
:104F100018001E00000FC00003F0000078001818F1
:104F2000001818001C38001FF0001BE000000000F3
:104F30000000000000000000000000000000000071
:104F400000000000000000000000003FFC003FFCEB
:104F500000318C00318C00318C00318C00018000DC
:104F60000180000180000180000180000180000FAD
:104F7000F0000FF000000000000000000000000042
:104F80000000000000000000000000000000000021
:104F90000000007E7E007E7E0018180018180018A1
:104FA00018001818001818001818001818001818F9
:104FB000001818000C30000FF00003C000000000C3
:104FC00000000000000000000000000000000000E1
:104FD00000000000000000000000007F7F007F7FD5
:104FE00000180C000C18000C18000C1800063000FB
:104FF00006300003600003600003600001C0000190
:10500000C000008000000000000000000000000060
:105010000000000000000000000000000000000090
:10502000000000FE3F80FE3F80300600300600306A
:10503000860019CC0019CC001B6C001B6C001E7C78
:10504000000E38000E38000C18000C18000000008C
:105050000000000000000000000000000000000050
:1050600000000000000000000000007E7E007E7E48
:10507000001818000C300006600003C0000180001A
:1050800001800003C0000660000C30001818007E8C
:105090007E007E7E00000000000000000000000096
:1050A0000000000000000000000000000000000000
:1050B0000000007C7E007C7E001818000C3000068A
:1050C000600006600003C0000180000180000180D4
:1050D000000180000180000FF0000FF000000000D0
:1050E00000000000000000000000000000000000C0
:1050F00000000000000000000000001FF8001FF882
:105100000018180018300018600018C00001800056
:105110000300000618000C18001818003018003F93
:10512000F8003FF800000000000000000000000050
:10513000000000000000000000000000000000006F
:1051400001F00001F00001800001800001800001F9
:10515000800001800001800001800001800001804A
:1051600000018000018000018000018000018000BA
:1051700001F00001F000000000000000000000004D
:1051800000001800001800001C00000C00000E00B9
:10519000000600000600000300000300000180007C
:1051A00001800000C00000C000006000006000003E
:1051B00070000030000038000018000018000000E7
:1051C00000000000000000000000000000000000DF
:1051D0000F80000F8000018000018000018000012D
:1051E00080000180000180000180000180000180BA
:1051F000000180000180000180000180000180002A
:105200000F80000F80000000000000000000000080
:10521000000000000000800001C00003E0000770F3
:10522000000630000C1800180C00100400000000EC
:10523000000000000000000000000000000000006E
:10524000000000000000000000000000000000005E
:10525000000000000000000000000000000000004E
:10526000000000000000000000000000000000003E
:10527000000000000000000000000000000000002E
:10528000000000000000000000000000000000001E
:10529000000000000000000000000000FFFF00FF11
:1052A000FF0000000003000003800000E000006039
:1052B00000000000000000000000000000000000EE
:1052C00000000000000000000000000000000000DE
:1052D00000000000000000000000000000000000CE
:1052E00000000000000000000000000000000000BE
:1052F0000000000000000000000000000FC0001FC0
:10530000E00000300000300007F0001FF0003830EF
:10531000003030003070001FFC000FBC00000000A7
:10532000000000000000000000000000000000007D
:105330000000000000000000780000780000180065
:10534000001800001BE0001FF8001C1800180C00DB
:10535000180C00180C00180C00180C001C18007F0A
:10536000F8007BE0000000000000000000000000EA
:10537000000000000000000000000000000000002D
:1053800000000000000000000000000003EC000F1F
:10539000FC001C1C00380C00300C003000003000F9
:1053A00000380C001C1C000FF80003F00000000087
:1053B00000000000000000000000000000000000ED
:1053C00000000000000000000078000078000018D5
:1053D0000000180007D8001FF80018380030180027
:1053E0003018003018003018003018001838001F2E
:1053F000FE0007DE000000000000000000000000CA
:10540000000000000000000000000000000000009C
:1054100000000000000000000000000007E0001F86
:10542000F800181800300C003FFC003FFC00300072
:1054300000300000180C001FFC0007F00000000006
:10544000000000000000000000000000000000005C
:10545000000000000000000001FC0003FC0006004A
:10546000000600003FF8003FF800060000060000BC
:105470000600000600000600000600000600003FCF
:10548000F0003FF0000000000000000000000000FD
:10549000000000000000000000000000000000000C
:1054A00000000000000000000000000007DE001FF8
:1054B000FE0018380030180030180030180030187E
:1054C000003018001838001FF80007D80000180036
:1054D0000018000038000FF0000FC00000000000AE
:1054E00000000000000000007800007800001800B4
:1054F000001800001BE0001FF0001C380018180006
:105500001818001818001818001818001818007E2D
:105510007E007E7E00000000000000000000000011
:10552000000000000000000000000000000000007B
:105530000180000180000000000000001F80001FAB
:105540008000018000018000018000018000018056
:10555000000180000180003FFC003FFC00000000D3
:10556000000000000000000000000000000000003B
:10557000000000000000000000C00000C0000000AB
:10558000000000001FF0001FF0000030000030009D
:10559000003000003000003000003000003000001B
:1055A00030000030000030000030000070001FE0CC
:1055B000001F80000000000000000000000000004C
:1055C0003C00003C00000C00000C00000CF8000C3B
:1055D000F8000CC0000D80000F80000F00000F804D
:1055E000000DC0000CE0003C7C003C7C0000000092
:1055F00000000000000000000000000000000000AB
:1056000000000000000000001F80001F80000180DB
:105610000001800001800001800001800001800005
:105620000180000180000180000180000180003FB6
:10563000FC003FFC00000000000000000000000033
:10564000000000000000000000000000000000005A
:10565000000000000000000000000000F77800FFDC
:10566000FC0039CC00318C00318C00318C00318C45
:1056700000318C00318C00FDEF00FDEF00000000D8
:10568000000000000000000000000000000000001A
:10569000000000000000000000000000000000000A
:1056A000000000007BE0007FF0001C3800181800AC
:1056B0001818001818001818001818001818007E7C
:1056C0007E007E7E00000000000000000000000060
:1056D00000000000000000000000000000000000CA
:1056E00000000000000000000000000003C0000FE8
:1056F000F0001C3800381C00300C00300C00300C5E
:1057000000381C001C38000FF00003C0000000002F
:105710000000000000000000000000000000000089
:105720000000000000000000000000000000000079
:10573000000000007BE0007FF8001C1800180C003F
:10574000180C00180C00180C00180C001C18001F76
:10575000F8001BE0001800001800001800007F008F
:10576000007F0000000000000000000000000000BA
:1057700000000000000000000000000007DE001F25
:10578000FE001838003018003018003018003018AB
:10579000003018001838001FF80007D80000180063
:1057A00000180000180000FE0000FE0000000000CD
:1057B00000000000000000000000000000000000E9
:1057C000000000003E78003EFC0007CC000700000F
:1057D0000600000600000600000600000600003F6C
:1057E000F0003FF00000000000000000000000009A
:1057F00000000000000000000000000000000000A9
:1058000000000000000000000000000007F8000F8A
:10581000F8001818001818001F80000FF00000F89A
:10582000001818001838001FF0001FE000000000EA
:105830000000000000000000000000000000000068
:1058400000000000000000000C00000C00000C0034
:10585000000C00003FF0003FF0000C00000C0000C6
:105860000C00000C00000C00000C00000C1C0007D9
:10587000FC0003F000000000000000000000000039
:105880000000000000000000000000000000000018
:1058900000000000000000000000000078780078A0
:1058A0007800181800181800181800181800181890
:1058B000001818001838000FFE0007DE0000000076
:1058C00000000000000000000000000000000000D8
:1058D00000000000000000000000000000000000C8
:1058E000000000007C3E007C3E00181800181800E4
:1058F0000C30000C300006600006600007E000037A
:10590000C00003C000000000000000000000000014
:105910000000000000000000000000000000000087
:10592000000000000000000000000000783C00784B
:105930003C003118003398003398001AB0001EF074
:10594000001EF0001C60000C60000C6000000000F5
:105950000000000000000000000000000000000047
:105960000000000000000000000000000000000037
:10597000000000003E7C003E7C000C300006600011
:1059800003C00001800003C0000660000C30003E30
:105990007C003E7C000000000000000000000000D1
:1059A00000000000000000000000000000000000F7
:1059B0000000000000000000000000007E1F007ECC
:1059C0001F00180C000C18000C18000630000630E0
:1059D0000003600003E00001C00000C0000180007F
:1059E0000180000300003FC0003FC0000000000035
:1059F00000000000000000000000000000000000A7
:105A0000000000001FF8001FF800183000186000A8
:105A100000C0000180000300000618000C18001FE1
:105A2000F8001FF800000000000000000000000067
:105A30000000000000000000000000000000000066
:105A400000E00001E0000180000180000180000111
:105A500080000180000180000380000700000380B7
:105A600000018000018000018000018000018000B1
:105A700001E00000E0000000000000000000000065
:105A80000000000000000000018000018000018093
:105A90000001800001800001800001800001800081
:105AA0000180000180000180000180000180000170
:105AB0008000018000018000018000018000000062
:105AC00000000000000000000000000000000000D6
:105AD00007000007800001800001800001800001B4
